{
  "contractName": "MyContractBlockchain",
  "abi": [
    {
      "inputs": [],
      "stateMutability": "nonpayable",
      "type": "constructor"
    },
    {
      "inputs": [],
      "name": "admin",
      "outputs": [
        {
          "internalType": "address",
          "name": "",
          "type": "address"
        }
      ],
      "stateMutability": "view",
      "type": "function"
    },
    {
      "inputs": [
        {
          "internalType": "string",
          "name": "",
          "type": "string"
        }
      ],
      "name": "users",
      "outputs": [
        {
          "internalType": "string",
          "name": "username",
          "type": "string"
        },
        {
          "internalType": "string",
          "name": "password",
          "type": "string"
        },
        {
          "internalType": "string",
          "name": "role",
          "type": "string"
        }
      ],
      "stateMutability": "view",
      "type": "function"
    },
    {
      "inputs": [
        {
          "internalType": "string",
          "name": "_username",
          "type": "string"
        },
        {
          "internalType": "string",
          "name": "_password",
          "type": "string"
        }
      ],
      "name": "authenticateAdmin",
      "outputs": [
        {
          "internalType": "bool",
          "name": "",
          "type": "bool"
        }
      ],
      "stateMutability": "view",
      "type": "function"
    },
    {
      "inputs": [
        {
          "internalType": "string",
          "name": "_username",
          "type": "string"
        },
        {
          "internalType": "string",
          "name": "_password",
          "type": "string"
        },
        {
          "internalType": "string",
          "name": "_role",
          "type": "string"
        }
      ],
      "name": "createUser",
      "outputs": [],
      "stateMutability": "nonpayable",
      "type": "function"
    },
    {
      "inputs": [
        {
          "internalType": "string",
          "name": "_username",
          "type": "string"
        }
      ],
      "name": "getUser",
      "outputs": [
        {
          "components": [
            {
              "internalType": "string",
              "name": "username",
              "type": "string"
            },
            {
              "internalType": "string",
              "name": "password",
              "type": "string"
            },
            {
              "internalType": "string",
              "name": "role",
              "type": "string"
            }
          ],
          "internalType": "struct MyContractBlockchain.User",
          "name": "",
          "type": "tuple"
        }
      ],
      "stateMutability": "view",
      "type": "function"
    },
    {
      "inputs": [
        {
          "internalType": "string",
          "name": "_username",
          "type": "string"
        },
        {
          "internalType": "string",
          "name": "_password",
          "type": "string"
        }
      ],
      "name": "authenticate",
      "outputs": [
        {
          "internalType": "bool",
          "name": "",
          "type": "bool"
        }
      ],
      "stateMutability": "view",
      "type": "function"
    },
    {
      "inputs": [
        {
          "internalType": "string",
          "name": "_username",
          "type": "string"
        }
      ],
      "name": "checkUserRole",
      "outputs": [
        {
          "internalType": "string",
          "name": "",
          "type": "string"
        }
      ],
      "stateMutability": "view",
      "type": "function"
    }
  ],
  "bytecode": "0x60806040523480156200001157600080fd5b5033600160006101000a81548173ffffffffffffffffffffffffffffffffffffffff021916908373ffffffffffffffffffffffffffffffffffffffff1602179055506040518060400160405280600681526020017f546573743030000000000000000000000000000000000000000000000000000081525060029080519060200190620000a0929190620000f5565b506040518060400160405280600681526020017f546573743030000000000000000000000000000000000000000000000000000081525060039080519060200190620000ee929190620000f5565b506200020a565b8280546200010390620001a5565b90600052602060002090601f01602090048101928262000127576000855562000173565b82601f106200014257805160ff191683800117855562000173565b8280016001018555821562000173579182015b828111156200017257825182559160200191906001019062000155565b5b50905062000182919062000186565b5090565b5b80821115620001a157600081600090555060010162000187565b5090565b60006002820490506001821680620001be57607f821691505b60208210811415620001d557620001d4620001db565b5b50919050565b7f4e487b7100000000000000000000000000000000000000000000000000000000600052602260045260246000fd5b6111eb806200021a6000396000f3fe608060405234801561001057600080fd5b506004361061007d5760003560e01c806359ae069b1161005b57806359ae069b14610112578063689e1c031461012e5780637d1571b114610160578063f851a440146101905761007d565b80633044b1641461008257806331feb671146100b2578063544541b3146100e2575b600080fd5b61009c60048036038101906100979190610b2d565b6101ae565b6040516100a99190610e5d565b60405180910390f35b6100cc60048036038101906100c79190610aec565b610260565b6040516100d99190610f26565b60405180910390f35b6100fc60048036038101906100f79190610b2d565b61044e565b6040516101099190610e5d565b60405180910390f35b61012c60048036038101906101279190610b99565b6104c6565b005b61014860048036038101906101439190610aec565b61070f565b60405161015793929190610e9a565b60405180910390f35b61017a60048036038101906101759190610aec565b6108e7565b6040516101879190610e78565b60405180910390f35b61019861099a565b6040516101a59190610e42565b60405180910390f35b600060026040516020016101c29190610e2b565b60405160208183030381529060405280519060200120836040516020016101e99190610e14565b60405160208183030381529060405280519060200120148015610258575060036040516020016102199190610e2b565b60405160208183030381529060405280519060200120826040516020016102409190610e14565b60405160208183030381529060405280519060200120145b905092915050565b6102686109c0565b6000826040516102789190610e14565b90815260200160405180910390206040518060600160405290816000820180546102a19061106b565b80601f01602080910402602001604051908101604052809291908181526020018280546102cd9061106b565b801561031a5780601f106102ef5761010080835404028352916020019161031a565b820191906000526020600020905b8154815290600101906020018083116102fd57829003601f168201915b505050505081526020016001820180546103339061106b565b80601f016020809104026020016040519081016040528092919081815260200182805461035f9061106b565b80156103ac5780601f10610381576101008083540402835291602001916103ac565b820191906000526020600020905b81548152906001019060200180831161038f57829003601f168201915b505050505081526020016002820180546103c59061106b565b80601f01602080910402602001604051908101604052809291908181526020018280546103f19061106b565b801561043e5780601f106104135761010080835404028352916020019161043e565b820191906000526020600020905b81548152906001019060200180831161042157829003601f168201915b5050505050815250509050919050565b6000808360405161045f9190610e14565b90815260200160405180910390206001016040516020016104809190610e2b565b60405160208183030381529060405280519060200120826040516020016104a79190610e14565b6040516020818303038152906040528051906020012014905092915050565b600160009054906101000a900473ffffffffffffffffffffffffffffffffffffffff1673ffffffffffffffffffffffffffffffffffffffff163373ffffffffffffffffffffffffffffffffffffffff16148015610570575060026040516020016105309190610e2b565b6040516020818303038152906040528051906020012060026040516020016105589190610e2b565b60405160208183030381529060405280519060200120145b80156105c9575060036040516020016105899190610e2b565b6040516020818303038152906040528051906020012060036040516020016105b19190610e2b565b60405160208183030381529060405280519060200120145b610608576040517f08c379a00000000000000000000000000000000000000000000000000000000081526004016105ff90610f06565b60405180910390fd5b600080846040516106199190610e14565b908152602001604051809103902060000180546106359061106b565b905014610677576040517f08c379a000000000000000000000000000000000000000000000000000000000815260040161066e90610ee6565b60405180910390fd5b6040518060600160405280848152602001838152602001828152506000846040516106a29190610e14565b908152602001604051809103902060008201518160000190805190602001906106cc9291906109e1565b5060208201518160010190805190602001906106e99291906109e1565b5060408201518160020190805190602001906107069291906109e1565b50905050505050565b6000818051602081018201805184825260208301602085012081835280955050505050506000915090508060000180546107489061106b565b80601f01602080910402602001604051908101604052809291908181526020018280546107749061106b565b80156107c15780601f10610796576101008083540402835291602001916107c1565b820191906000526020600020905b8154815290600101906020018083116107a457829003601f168201915b5050505050908060010180546107d69061106b565b80601f01602080910402602001604051908101604052809291908181526020018280546108029061106b565b801561084f5780601f106108245761010080835404028352916020019161084f565b820191906000526020600020905b81548152906001019060200180831161083257829003601f168201915b5050505050908060020180546108649061106b565b80601f01602080910402602001604051908101604052809291908181526020018280546108909061106b565b80156108dd5780601f106108b2576101008083540402835291602001916108dd565b820191906000526020600020905b8154815290600101906020018083116108c057829003601f168201915b5050505050905083565b60606000826040516108f99190610e14565b908152602001604051809103902060020180546109159061106b565b80601f01602080910402602001604051908101604052809291908181526020018280546109419061106b565b801561098e5780601f106109635761010080835404028352916020019161098e565b820191906000526020600020905b81548152906001019060200180831161097157829003601f168201915b50505050509050919050565b600160009054906101000a900473ffffffffffffffffffffffffffffffffffffffff1681565b60405180606001604052806060815260200160608152602001606081525090565b8280546109ed9061106b565b90600052602060002090601f016020900481019282610a0f5760008555610a56565b82601f10610a2857805160ff1916838001178555610a56565b82800160010185558215610a56579182015b82811115610a55578251825591602001919060010190610a3a565b5b509050610a639190610a67565b5090565b5b80821115610a80576000816000905550600101610a68565b5090565b6000610a97610a9284610f6d565b610f48565b905082815260208101848484011115610aaf57600080fd5b610aba848285611029565b509392505050565b600082601f830112610ad357600080fd5b8135610ae3848260208601610a84565b91505092915050565b600060208284031215610afe57600080fd5b600082013567ffffffffffffffff811115610b1857600080fd5b610b2484828501610ac2565b91505092915050565b60008060408385031215610b4057600080fd5b600083013567ffffffffffffffff811115610b5a57600080fd5b610b6685828601610ac2565b925050602083013567ffffffffffffffff811115610b8357600080fd5b610b8f85828601610ac2565b9150509250929050565b600080600060608486031215610bae57600080fd5b600084013567ffffffffffffffff811115610bc857600080fd5b610bd486828701610ac2565b935050602084013567ffffffffffffffff811115610bf157600080fd5b610bfd86828701610ac2565b925050604084013567ffffffffffffffff811115610c1a57600080fd5b610c2686828701610ac2565b9150509250925092565b610c3981610feb565b82525050565b610c4881610ffd565b82525050565b6000610c5982610fb3565b610c638185610fbe565b9350610c73818560208601611038565b610c7c8161112c565b840191505092915050565b6000610c9282610fb3565b610c9c8185610fcf565b9350610cac818560208601611038565b610cb58161112c565b840191505092915050565b6000610ccb82610fb3565b610cd58185610fe0565b9350610ce5818560208601611038565b80840191505092915050565b60008154610cfe8161106b565b610d088186610fe0565b94506001821660008114610d235760018114610d3457610d67565b60ff19831686528186019350610d67565b610d3d85610f9e565b60005b83811015610d5f57815481890152600182019150602081019050610d40565b838801955050505b50505092915050565b6000610d7d601783610fcf565b9150610d888261113d565b602082019050919050565b6000610da0602283610fcf565b9150610dab82611166565b604082019050919050565b60006060830160008301518482036000860152610dd38282610c4e565b91505060208301518482036020860152610ded8282610c4e565b91505060408301518482036040860152610e078282610c4e565b9150508091505092915050565b6000610e208284610cc0565b915081905092915050565b6000610e378284610cf1565b915081905092915050565b6000602082019050610e576000830184610c30565b92915050565b6000602082019050610e726000830184610c3f565b92915050565b60006020820190508181036000830152610e928184610c87565b905092915050565b60006060820190508181036000830152610eb48186610c87565b90508181036020830152610ec88185610c87565b90508181036040830152610edc8184610c87565b9050949350505050565b60006020820190508181036000830152610eff81610d70565b9050919050565b60006020820190508181036000830152610f1f81610d93565b9050919050565b60006020820190508181036000830152610f408184610db6565b905092915050565b6000610f52610f63565b9050610f5e828261109d565b919050565b6000604051905090565b600067ffffffffffffffff821115610f8857610f876110fd565b5b610f918261112c565b9050602081019050919050565b60008190508160005260206000209050919050565b600081519050919050565b600082825260208201905092915050565b600082825260208201905092915050565b600081905092915050565b6000610ff682611009565b9050919050565b60008115159050919050565b600073ffffffffffffffffffffffffffffffffffffffff82169050919050565b82818337600083830152505050565b60005b8381101561105657808201518184015260208101905061103b565b83811115611065576000848401525b50505050565b6000600282049050600182168061108357607f821691505b60208210811415611097576110966110ce565b5b50919050565b6110a68261112c565b810181811067ffffffffffffffff821117156110c5576110c46110fd565b5b80604052505050565b7f4e487b7100000000000000000000000000000000000000000000000000000000600052602260045260246000fd5b7f4e487b7100000000000000000000000000000000000000000000000000000000600052604160045260246000fd5b6000601f19601f8301169050919050565b7f557365726e616d6520616c726561647920657869737473000000000000000000600082015250565b7f4f6e6c792061646d696e2063616e20706572666f726d2074686973206163746960008201527f6f6e00000000000000000000000000000000000000000000000000000000000060208201525056fea26469706673582212209829a7a6b94eafc0bf77a42764d3bc6f433f907bc57393b33617447e8c6c47bb64736f6c63430008040033",
  "immutableReferences": {},
  "source": "// SPDX-License-Identifier: MIT\r\npragma solidity ^0.8.0;\r\n\r\ncontract MyContractBlockchain {\r\n    struct User {\r\n        string username;    // username  \r\n        string password;  // \r\n        string role; // \"student\" or \"teacher\"\r\n    }\r\n    \r\n    mapping(string => User) public users;\r\n    address public admin;\r\n    string private adminUsername;\r\n    string private adminPassword;\r\n    \r\n    constructor() {\r\n        admin = msg.sender;\r\n        adminUsername = \"Test00\";\r\n        adminPassword = \"Test00\";\r\n    }\r\n    \r\n    modifier onlyAdmin() {\r\n        require(msg.sender == admin && keccak256(abi.encodePacked(adminUsername)) == keccak256(abi.encodePacked(adminUsername)) && keccak256(abi.encodePacked(adminPassword)) == keccak256(abi.encodePacked(adminPassword)), \"Only admin can perform this action\");\r\n        _;\r\n    }\r\n    \r\n    function authenticateAdmin(string memory _username, string memory _password) public view returns(bool) {\r\n        return keccak256(abi.encodePacked(_username)) == keccak256(abi.encodePacked(adminUsername)) && keccak256(abi.encodePacked(_password)) == keccak256(abi.encodePacked(adminPassword));\r\n    }\r\n    \r\n    function createUser(string memory _username, string memory _password, string memory _role) public onlyAdmin {\r\n    require(bytes(users[_username].username).length == 0, \"Username already exists\");\r\n    users[_username] = User(_username, _password, _role);\r\n}\r\n    \r\n    function getUser(string memory _username) public view returns(User memory) {\r\n    return users[_username];\r\n}\r\n\r\n\r\n    function authenticate(string memory _username, string memory _password) public view returns(bool) {\r\n    return keccak256(abi.encodePacked(_password)) == keccak256(abi.encodePacked(users[_username].password));\r\n}\r\n    function checkUserRole(string memory _username) public view returns(string memory) {\r\n    return users[_username].role;\r\n}\r\n\r\n}\r\n",
  "sourcePath": "C:\\Users\\sirichai\\Desktop\\project\\project\\ProjectApp\\contracts\\MyContract.sol",
  "compiler": {
    "name": "solc",
    "version": "0.8.4+commit.c7e474f2.Emscripten.clang"
  },
  "schemaVersion": "3.4.11",
  "updatedAt": "2023-09-16T14:47:42.138Z",
  "devdoc": {
    "kind": "dev",
    "methods": {},
    "version": 1
  },
  "userdoc": {
    "kind": "user",
    "methods": {},
    "version": 1
  }
}