{
  "contractName": "UniversityAuthentication",
  "abi": [
    {
      "inputs": [],
      "stateMutability": "nonpayable",
      "type": "constructor"
    },
    {
      "inputs": [],
      "name": "admin",
      "outputs": [
        {
          "internalType": "address",
          "name": "",
          "type": "address"
        }
      ],
      "stateMutability": "view",
      "type": "function"
    },
    {
      "inputs": [
        {
          "internalType": "string",
          "name": "_username",
          "type": "string"
        },
        {
          "internalType": "string",
          "name": "_password",
          "type": "string"
        },
        {
          "internalType": "enum UniversityAuthentication.Role",
          "name": "_role",
          "type": "uint8"
        }
      ],
      "name": "createUser",
      "outputs": [],
      "stateMutability": "nonpayable",
      "type": "function"
    },
    {
      "inputs": [
        {
          "internalType": "string",
          "name": "_username",
          "type": "string"
        },
        {
          "internalType": "string",
          "name": "_newPassword",
          "type": "string"
        }
      ],
      "name": "changePassword",
      "outputs": [],
      "stateMutability": "nonpayable",
      "type": "function"
    },
    {
      "inputs": [
        {
          "internalType": "string",
          "name": "_username",
          "type": "string"
        },
        {
          "internalType": "string",
          "name": "_password",
          "type": "string"
        }
      ],
      "name": "login",
      "outputs": [
        {
          "internalType": "enum UniversityAuthentication.Role",
          "name": "",
          "type": "uint8"
        }
      ],
      "stateMutability": "view",
      "type": "function"
    }
  ],
  "bytecode": "0x608060405234801561001057600080fd5b5033600160006101000a81548173ffffffffffffffffffffffffffffffffffffffff021916908373ffffffffffffffffffffffffffffffffffffffff160217905550610b6f806100616000396000f3fe608060405234801561001057600080fd5b506004361061004c5760003560e01c806358467dbc1461005157806384a8366214610081578063e8870f8b1461009d578063f851a440146100b9575b600080fd5b61006b60048036038101906100669190610562565b6100d7565b60405161007891906107cd565b60405180910390f35b61009b60048036038101906100969190610562565b6101be565b005b6100b760048036038101906100b291906105ce565b6102a6565b005b6100c161041c565b6040516100ce91906107b2565b60405180910390f35b6000816040516020016100ea9190610784565b604051602081830303815290604052805190602001206000846040516101109190610784565b9081526020016040518091039020600001604051602001610131919061079b565b6040516020818303038152906040528051906020012014610187576040517f08c379a000000000000000000000000000000000000000000000000000000000815260040161017e90610808565b60405180910390fd5b6000836040516101979190610784565b908152602001604051809103902060010160009054906101000a900460ff16905092915050565b806040516020016101cf9190610784565b604051602081830303815290604052805190602001206000836040516101f59190610784565b9081526020016040518091039020600001604051602001610216919061079b565b604051602081830303815290604052805190602001201461026c576040517f08c379a0000000000000000000000000000000000000000000000000000000008152600401610263906107e8565b60405180910390fd5b8060008360405161027d9190610784565b908152602001604051809103902060000190805190602001906102a1929190610442565b505050565b600160009054906101000a900473ffffffffffffffffffffffffffffffffffffffff1673ffffffffffffffffffffffffffffffffffffffff163373ffffffffffffffffffffffffffffffffffffffff1614610336576040517f08c379a000000000000000000000000000000000000000000000000000000000815260040161032d90610828565b60405180910390fd5b6040518060400160405280838152602001826002811115610380577f4e487b7100000000000000000000000000000000000000000000000000000000600052602160045260246000fd5b8152506000846040516103939190610784565b908152602001604051809103902060008201518160000190805190602001906103bd929190610442565b5060208201518160010160006101000a81548160ff0219169083600281111561040f577f4e487b7100000000000000000000000000000000000000000000000000000000600052602160045260246000fd5b0217905550905050505050565b600160009054906101000a900473ffffffffffffffffffffffffffffffffffffffff1681565b82805461044e90610973565b90600052602060002090601f01602090048101928261047057600085556104b7565b82601f1061048957805160ff19168380011785556104b7565b828001600101855582156104b7579182015b828111156104b657825182559160200191906001019061049b565b5b5090506104c491906104c8565b5090565b5b808211156104e15760008160009055506001016104c9565b5090565b60006104f86104f38461086d565b610848565b90508281526020810184848401111561051057600080fd5b61051b848285610931565b509392505050565b60008135905061053281610b29565b92915050565b600082601f83011261054957600080fd5b81356105598482602086016104e5565b91505092915050565b6000806040838503121561057557600080fd5b600083013567ffffffffffffffff81111561058f57600080fd5b61059b85828601610538565b925050602083013567ffffffffffffffff8111156105b857600080fd5b6105c485828601610538565b9150509250929050565b6000806000606084860312156105e357600080fd5b600084013567ffffffffffffffff8111156105fd57600080fd5b61060986828701610538565b935050602084013567ffffffffffffffff81111561062657600080fd5b61063286828701610538565b925050604061064386828701610523565b9150509250925092565b610656816108da565b82525050565b6106658161091f565b82525050565b6000610676826108b3565b61068081856108cf565b9350610690818560208601610940565b80840191505092915050565b600081546106a981610973565b6106b381866108cf565b945060018216600081146106ce57600181146106df57610712565b60ff19831686528186019350610712565b6106e88561089e565b60005b8381101561070a578154818901526001820191506020810190506106eb565b838801955050505b50505092915050565b60006107286012836108be565b915061073382610a74565b602082019050919050565b600061074b601e836108be565b915061075682610a9d565b602082019050919050565b600061076e6022836108be565b915061077982610ac6565b604082019050919050565b6000610790828461066b565b915081905092915050565b60006107a7828461069c565b915081905092915050565b60006020820190506107c7600083018461064d565b92915050565b60006020820190506107e2600083018461065c565b92915050565b600060208201905081810360008301526108018161071b565b9050919050565b600060208201905081810360008301526108218161073e565b9050919050565b6000602082019050818103600083015261084181610761565b9050919050565b6000610852610863565b905061085e82826109a5565b919050565b6000604051905090565b600067ffffffffffffffff82111561088857610887610a34565b5b61089182610a63565b9050602081019050919050565b60008190508160005260206000209050919050565b600081519050919050565b600082825260208201905092915050565b600081905092915050565b60006108e5826108ff565b9050919050565b60008190506108fa82610b15565b919050565b600073ffffffffffffffffffffffffffffffffffffffff82169050919050565b600061092a826108ec565b9050919050565b82818337600083830152505050565b60005b8381101561095e578082015181840152602081019050610943565b8381111561096d576000848401525b50505050565b6000600282049050600182168061098b57607f821691505b6020821081141561099f5761099e610a05565b5b50919050565b6109ae82610a63565b810181811067ffffffffffffffff821117156109cd576109cc610a34565b5b80604052505050565b7f4e487b7100000000000000000000000000000000000000000000000000000000600052602160045260246000fd5b7f4e487b7100000000000000000000000000000000000000000000000000000000600052602260045260246000fd5b7f4e487b7100000000000000000000000000000000000000000000000000000000600052604160045260246000fd5b6000601f19601f8301169050919050565b7f496e636f72726563742070617373776f72640000000000000000000000000000600082015250565b7f496e636f727265637420757365726e616d65206f722070617373776f72640000600082015250565b7f4f6e6c792061646d696e2063616e20706572666f726d2074686973206163746960008201527f6f6e000000000000000000000000000000000000000000000000000000000000602082015250565b60038110610b2657610b256109d6565b5b50565b60038110610b3657600080fd5b5056fea2646970667358221220625ad4bf24ae507af1bb464c8f2dad041269a8637297f5c2b4a89e1f468ba02464736f6c63430008040033",
  "immutableReferences": {},
  "source": "// SPDX-License-Identifier: MIT\npragma solidity >=0.5.22 <0.9.0;\n\ncontract UniversityAuthentication {\n\n    // 1. \n    enum Role { Student, Teacher, Admin }\n\n    // \n    struct User {\n        string password;\n        Role role;\n    }\n\n    //  mapping \n    mapping(string => User) users;\n\n    //  address \n    address public admin;\n\n    // Modifier \n    modifier onlyAdmin() {\n        require(msg.sender == admin, \"Only admin can perform this action\");\n        _;\n    }\n\n    // Constructor \n    constructor() {\n        admin = msg.sender;\n    }\n\n    // 2. \n    function createUser(string memory _username, string memory _password, Role _role) public onlyAdmin {\n        users[_username] = User(_password, _role);\n    }\n\n    // 3. \n    function changePassword(string memory _username, string memory _newPassword) public {\n        require(keccak256(abi.encodePacked(users[_username].password)) == keccak256(abi.encodePacked(_newPassword)), \"Incorrect password\");\n        users[_username].password = _newPassword;\n    }\n\n    // 4. \n    function login(string memory _username, string memory _password) public view returns (Role) {\n        require(keccak256(abi.encodePacked(users[_username].password)) == keccak256(abi.encodePacked(_password)), \"Incorrect username or password\");\n        return users[_username].role;\n    }\n}\n",
  "sourcePath": "C:\\Users\\siric\\OneDrive - KASETSART UNIVERSITY\\Desktop\\chack-in-App\\ProjectApp\\contracts\\MyContract.sol",
  "compiler": {
    "name": "solc",
    "version": "0.8.4+commit.c7e474f2.Emscripten.clang"
  },
  "schemaVersion": "3.4.15",
  "updatedAt": "2023-09-15T19:51:08.842Z",
  "devdoc": {
    "kind": "dev",
    "methods": {},
    "version": 1
  },
  "userdoc": {
    "kind": "user",
    "methods": {},
    "version": 1
  }
}